{
  "contractName": "SupplyChain",
  "abi": [
    {
      "constant": false,
      "inputs": [
        {
          "name": "locationId",
          "type": "uint256"
        },
        {
          "name": "locationName",
          "type": "string"
        },
        {
          "name": "secret",
          "type": "string"
        }
      ],
      "name": "AddNewLocation",
      "outputs": [],
      "payable": false,
      "stateMutability": "nonpayable",
      "type": "function"
    },
    {
      "constant": true,
      "inputs": [],
      "name": "GetChainCount",
      "outputs": [
        {
          "name": "",
          "type": "uint16"
        }
      ],
      "payable": false,
      "stateMutability": "view",
      "type": "function"
    },
    {
      "constant": true,
      "inputs": [
        {
          "name": "ChainNumber",
          "type": "uint16"
        }
      ],
      "name": "GetLocation",
      "outputs": [
        {
          "name": "",
          "type": "string"
        },
        {
          "name": "",
          "type": "uint256"
        },
        {
          "name": "",
          "type": "uint256"
        },
        {
          "name": "",
          "type": "uint256"
        },
        {
          "name": "",
          "type": "string"
        }
      ],
      "payable": false,
      "stateMutability": "view",
      "type": "function"
    }
  ],
  "bytecode": "0x60806040526000600160006101000a81548161ffff021916908361ffff16021790555034801561002e57600080fd5b5061069d8061003e6000396000f300608060405260043610610057576000357c0100000000000000000000000000000000000000000000000000000000900463ffffffff1680632b47c8f01461005c5780638a53a5f914610187578063988bbca3146101ba575b600080fd5b34801561006857600080fd5b5061008b600480360381019080803561ffff169060200190929190505050610273565b604051808060200186815260200185815260200184815260200180602001838103835288818151815260200191508051906020019080838360005b838110156100e15780820151818401526020810190506100c6565b50505050905090810190601f16801561010e5780820380516001836020036101000a031916815260200191505b50838103825284818151815260200191508051906020019080838360005b8381101561014757808201518184015260208101905061012c565b50505050905090810190601f1680156101745780820380516001836020036101000a031916815260200191505b5097505050505050505060405180910390f35b34801561019357600080fd5b5061019c610447565b604051808261ffff1661ffff16815260200191505060405180910390f35b3480156101c657600080fd5b5061027160048036038101908080359060200190929190803590602001908201803590602001908080601f0160208091040260200160405190810160405280939291908181526020018383808284378201915050505050509192919290803590602001908201803590602001908080601f016020809104026020016040519081016040528093929190818152602001838380828437820191505050505050919291929050505061045f565b005b6060600080600060606000808761ffff1681526020019081526020016000206000016000808861ffff168152602001908152602001600020600101546000808961ffff168152602001908152602001600020600201546000808a61ffff168152602001908152602001600020600301546000808b61ffff168152602001908152602001600020600401848054600181600116156101000203166002900480601f0160208091040260200160405190810160405280929190818152602001828054600181600116156101000203166002900480156103915780601f1061036657610100808354040283529160200191610391565b820191906000526020600020905b81548152906001019060200180831161037457829003601f168201915b50505050509450808054600181600116156101000203166002900480601f01602080910402602001604051908101604052809291908181526020018280546001816001161561010002031660029004801561042d5780601f106104025761010080835404028352916020019161042d565b820191906000526020600020905b81548152906001019060200180831161041057829003601f168201915b505050505090509450945094509450945091939590929450565b6000600160009054906101000a900461ffff16905090565b61046761059c565b83816020018181525050828160000181905250818160800181905250428160600181815250506000600160009054906101000a900461ffff1661ffff161415156104df57600080600160009054906101000a900461ffff1661ffff168152602001908152602001600020600101548160400181815250505b80600080600160009054906101000a900461ffff1661ffff16815260200190815260200160002060008201518160000190805190602001906105229291906105cc565b50602082015181600101556040820151816002015560608201518160030155608082015181600401908051906020019061055d9291906105cc565b509050506001600081819054906101000a900461ffff168092919060010191906101000a81548161ffff021916908361ffff1602179055505050505050565b60a06040519081016040528060608152602001600081526020016000815260200160008152602001606081525090565b828054600181600116156101000203166002900490600052602060002090601f016020900481019282601f1061060d57805160ff191683800117855561063b565b8280016001018555821561063b579182015b8281111561063a57825182559160200191906001019061061f565b5b509050610648919061064c565b5090565b61066e91905b8082111561066a576000816000905550600101610652565b5090565b905600a165627a7a7230582047e19586289e2e9ecc32742c4de104ae4ba4700483e38a8aa8dd97f2b28db3530029",
  "source": "pragma solidity ^0.4.17;\n\ncontract SupplyChain {\n    struct Location {\n        string LocationName;\n        uint LocationId;\n        uint PreviousLocationId;\n        uint Timestamp;\n        string Secret;\n    }\n\n    mapping (uint=>Location) Chain;\n    uint16 ChainCount = 0;\n\n    function AddNewLocation(uint locationId, string locationName, string secret) public {\n        Location memory newLocation;\n        newLocation.LocationId = locationId;\n        newLocation.LocationName = locationName;\n        newLocation.Secret = secret;\n        newLocation.Timestamp = now;\n        if (ChainCount != 0){\n            newLocation.PreviousLocationId = Chain[ChainCount].LocationId;\n        }\n\n        Chain[ChainCount] = newLocation;\n        ChainCount++;\n    }\n\n    function GetChainCount() public view returns (uint16) {\n        return ChainCount;\n    }\n\n    function GetLocation(uint16 ChainNumber) public view returns (string, uint, uint, uint, string) {\n        return (\n            Chain[ChainNumber].LocationName,\n            Chain[ChainNumber].LocationId,\n            Chain[ChainNumber].PreviousLocationId,\n            Chain[ChainNumber].Timestamp,\n            Chain[ChainNumber].Secret\n        );\n    }\n}",
  "sourcePath": "E:\\work\\inne\\Blockchain\\nethereumChain\\eth\\contracts\\SupplyChain.sol",
  "compiler": {
    "name": "solc",
    "version": "0.4.24+commit.e67f0147.Emscripten.clang"
  },
  "schemaVersion": "2.0.1",
  "updatedAt": "2018-06-24T12:35:10.453Z"
}