{
  "contractName": "SupplyChain",
  "abi": [
    {
      "constant": true,
      "inputs": [
        {
          "name": "",
          "type": "uint256"
        }
      ],
      "name": "ChainDictionary",
      "outputs": [
        {
          "name": "",
          "type": "string"
        }
      ],
      "payable": false,
      "stateMutability": "view",
      "type": "function"
    },
    {
      "constant": false,
      "inputs": [
        {
          "name": "locationName",
          "type": "string"
        }
      ],
      "name": "AddNewLocation",
      "outputs": [],
      "payable": false,
      "stateMutability": "nonpayable",
      "type": "function"
    },
    {
      "constant": true,
      "inputs": [],
      "name": "GetChainCount",
      "outputs": [
        {
          "name": "",
          "type": "uint16"
        }
      ],
      "payable": false,
      "stateMutability": "view",
      "type": "function"
    },
    {
      "constant": true,
      "inputs": [
        {
          "name": "locationName",
          "type": "string"
        }
      ],
      "name": "GetLocation",
      "outputs": [
        {
          "name": "",
          "type": "uint256"
        },
        {
          "name": "",
          "type": "uint256"
        },
        {
          "name": "",
          "type": "string"
        },
        {
          "name": "",
          "type": "string"
        },
        {
          "name": "",
          "type": "uint256"
        }
      ],
      "payable": false,
      "stateMutability": "view",
      "type": "function"
    }
  ],
  "bytecode": "0x60806040526000600260006101000a81548161ffff021916908361ffff16021790555060206040519081016040528060008152506003908051906020019061004892919061005b565b5034801561005557600080fd5b50610100565b828054600181600116156101000203166002900490600052602060002090601f016020900481019282601f1061009c57805160ff19168380011785556100ca565b828001600101855582156100ca579182015b828111156100c95782518255916020019190600101906100ae565b5b5090506100d791906100db565b5090565b6100fd91905b808211156100f95760008160009055506001016100e1565b5090565b90565b610c108061010f6000396000f300608060405260043610610062576000357c0100000000000000000000000000000000000000000000000000000000900463ffffffff1680631db46be9146100675780638a53a5f9146100d0578063adaec4c514610103578063f1364729146101a9575b600080fd5b34801561007357600080fd5b506100ce600480360381019080803590602001908201803590602001908080601f016020809104026020016040519081016040528093929190818152602001838380828437820191505050505050919291929050505061030c565b005b3480156100dc57600080fd5b506100e561064c565b604051808261ffff1661ffff16815260200191505060405180910390f35b34801561010f57600080fd5b5061012e60048036038101908080359060200190929190505050610664565b6040518080602001828103825283818151815260200191508051906020019080838360005b8381101561016e578082015181840152602081019050610153565b50505050905090810190601f16801561019b5780820380516001836020036101000a031916815260200191505b509250505060405180910390f35b3480156101b557600080fd5b50610210600480360381019080803590602001908201803590602001908080601f0160208091040260200160405190810160405280939291908181526020018383808284378201915050505050509192919290505050610714565b604051808681526020018581526020018060200180602001848152602001838103835286818151815260200191508051906020019080838360005b8381101561026657808201518184015260208101905061024b565b50505050905090810190601f1680156102935780820380516001836020036101000a031916815260200191505b50838103825285818151815260200191508051906020019080838360005b838110156102cc5780820151818401526020810190506102b1565b50505050905090810190601f1680156102f95780820380516001836020036101000a031916815260200191505b5097505050505050505060405180910390f35b610314610a8f565b600260009054906101000a900461ffff1661ffff16816000018181525050818160400181905250428160800181815250506000600260009054906101000a900461ffff1661ffff161415156104f9576000600360405180828054600181600116156101000203166002900480156103c25780601f106103a05761010080835404028352918201916103c2565b820191906000526020600020905b8154815290600101906020018083116103ae575b50509150509081526020016040518091039020600001548160200181815250506000600360405180828054600181600116156101000203166002900480156104415780601f1061041f576101008083540402835291820191610441565b820191906000526020600020905b81548152906001019060200180831161042d575b505091505090815260200160405180910390206002018054600181600116156101000203166002900480601f0160208091040260200160405190810160405280929190818152602001828054600181600116156101000203166002900480156104eb5780601f106104c0576101008083540402835291602001916104eb565b820191906000526020600020905b8154815290600101906020018083116104ce57829003601f168201915b505050505081606001819052505b806000836040518082805190602001908083835b602083101515610532578051825260208201915060208101905060208303925061050d565b6001836020036101000a038019825116818451168082178552505050505050905001915050908152602001604051809103902060008201518160000155602082015181600101556040820151816002019080519060200190610595929190610abf565b5060608201518160030190805190602001906105b2929190610abf565b50608082015181600401559050508160016000600260009054906101000a900461ffff1661ffff16815260200190815260200160002090805190602001906105fb929190610b3f565b506002600081819054906101000a900461ffff168092919060010191906101000a81548161ffff021916908361ffff160217905550508160039080519060200190610647929190610b3f565b505050565b6000600260009054906101000a900461ffff16905090565b60016020528060005260406000206000915090508054600181600116156101000203166002900480601f01602080910402602001604051908101604052809291908181526020018280546001816001161561010002031660029004801561070c5780601f106106e15761010080835404028352916020019161070c565b820191906000526020600020905b8154815290600101906020018083116106ef57829003601f168201915b505050505081565b600080606080600080866040518082805190602001908083835b602083101515610753578051825260208201915060208101905060208303925061072e565b6001836020036101000a0380198251168184511680821785525050505050509050019150509081526020016040518091039020600001546000876040518082805190602001908083835b6020831015156107c2578051825260208201915060208101905060208303925061079d565b6001836020036101000a0380198251168184511680821785525050505050509050019150509081526020016040518091039020600101546000886040518082805190602001908083835b602083101515610831578051825260208201915060208101905060208303925061080c565b6001836020036101000a03801982511681845116808217855250505050505090500191505090815260200160405180910390206002016000896040518082805190602001908083835b60208310151561089f578051825260208201915060208101905060208303925061087a565b6001836020036101000a038019825116818451168082178552505050505050905001915050908152602001604051809103902060030160008a6040518082805190602001908083835b60208310151561090d57805182526020820191506020810190506020830392506108e8565b6001836020036101000a038019825116818451168082178552505050505050905001915050908152602001604051809103902060040154828054600181600116156101000203166002900480601f0160208091040260200160405190810160405280929190818152602001828054600181600116156101000203166002900480156109d95780601f106109ae576101008083540402835291602001916109d9565b820191906000526020600020905b8154815290600101906020018083116109bc57829003601f168201915b50505050509250818054600181600116156101000203166002900480601f016020809104026020016040519081016040528092919081815260200182805460018160011615610100020316600290048015610a755780601f10610a4a57610100808354040283529160200191610a75565b820191906000526020600020905b815481529060010190602001808311610a5857829003601f168201915b505050505091509450945094509450945091939590929450565b60a06040519081016040528060008152602001600081526020016060815260200160608152602001600081525090565b828054600181600116156101000203166002900490600052602060002090601f016020900481019282601f10610b0057805160ff1916838001178555610b2e565b82800160010185558215610b2e579182015b82811115610b2d578251825591602001919060010190610b12565b5b509050610b3b9190610bbf565b5090565b828054600181600116156101000203166002900490600052602060002090601f016020900481019282601f10610b8057805160ff1916838001178555610bae565b82800160010185558215610bae579182015b82811115610bad578251825591602001919060010190610b92565b5b509050610bbb9190610bbf565b5090565b610be191905b80821115610bdd576000816000905550600101610bc5565b5090565b905600a165627a7a7230582090f387bdc0047f360a5dd762ad97100eb4f1fa40446f4397712cc1e08f483e7a0029",
  "source": "pragma solidity ^0.4.17;\n\ncontract SupplyChain {\n    struct Location {\n        uint LocationId;\n        uint PreviousLocationId;\n        string LocationName;\n        string PreviousLocationName;\n        uint Timestamp;\n    }\n\n    mapping (string=>Location) Chain;\n    mapping (uint=>string) public ChainDictionary;\n    uint16 ChainCount = 0;\n    string LastInsertedLocation = \"\";\n\n    function AddNewLocation(string locationName) public {\n        Location memory newLocation;\n        newLocation.LocationId = ChainCount;\n        newLocation.LocationName = locationName;\n        newLocation.Timestamp = now;\n        if (ChainCount != 0){\n            newLocation.PreviousLocationId = Chain[LastInsertedLocation].LocationId;\n            newLocation.PreviousLocationName = Chain[LastInsertedLocation].LocationName;\n        }\n\n        Chain[locationName] = newLocation;\n        ChainDictionary[ChainCount] = locationName;\n        ChainCount++;\n        LastInsertedLocation = locationName;\n    }\n\n    function GetChainCount() public view returns (uint16) {\n        return ChainCount;\n    }\n\n    function GetLocation(string locationName) public view returns (uint, uint, string, string, uint) {\n        return (\n            Chain[locationName].LocationId,\n            Chain[locationName].PreviousLocationId,\n            Chain[locationName].LocationName,\n            Chain[locationName].PreviousLocationName,\n            Chain[locationName].Timestamp\n        );\n    }\n}",
  "sourcePath": "E:\\work\\inne\\Blockchain\\NethereumChain\\eth\\contracts\\SupplyChain.sol",
  "compiler": {
    "name": "solc",
    "version": "0.4.24+commit.e67f0147.Emscripten.clang"
  },
  "schemaVersion": "2.0.1",
  "updatedAt": "2018-07-13T22:30:25.919Z"
}