{
  "contractName": "Vote",
  "abi": [
    {
      "constant": true,
      "inputs": [],
      "name": "candidate1",
      "outputs": [
        {
          "name": "",
          "type": "uint256"
        }
      ],
      "payable": false,
      "stateMutability": "view",
      "type": "function"
    },
    {
      "constant": true,
      "inputs": [],
      "name": "candidate2",
      "outputs": [
        {
          "name": "",
          "type": "uint256"
        }
      ],
      "payable": false,
      "stateMutability": "view",
      "type": "function"
    },
    {
      "constant": true,
      "inputs": [
        {
          "name": "",
          "type": "address"
        }
      ],
      "name": "voted",
      "outputs": [
        {
          "name": "",
          "type": "bool"
        }
      ],
      "payable": false,
      "stateMutability": "view",
      "type": "function"
    },
    {
      "constant": false,
      "inputs": [
        {
          "name": "candidate",
          "type": "uint256"
        }
      ],
      "name": "castVote",
      "outputs": [],
      "payable": false,
      "stateMutability": "nonpayable",
      "type": "function"
    }
  ],
  "bytecode": "0x608060405234801561001057600080fd5b5061029a806100206000396000f300608060405260043610610062576000357c0100000000000000000000000000000000000000000000000000000000900463ffffffff16806301243fce146100675780633eb76b9c146100925780635b57014c146100bf578063aec2ccae146100ea575b600080fd5b34801561007357600080fd5b5061007c610145565b6040518082815260200191505060405180910390f35b34801561009e57600080fd5b506100bd6004803603810190808035906020019092919050505061014b565b005b3480156100cb57600080fd5b506100d4610248565b6040518082815260200191505060405180910390f35b3480156100f657600080fd5b5061012b600480360381019080803573ffffffffffffffffffffffffffffffffffffffff16906020019092919050505061024e565b604051808215151515815260200191505060405180910390f35b60005481565b600260003373ffffffffffffffffffffffffffffffffffffffff1673ffffffffffffffffffffffffffffffffffffffff16815260200190815260200160002060009054906101000a900460ff161580156101b0575060018114806101af5750600281145b5b15156101bb57600080fd5b60018114156101da5760008081548092919060010191905055506101ed565b6001600081548092919060010191905055505b6001600260003373ffffffffffffffffffffffffffffffffffffffff1673ffffffffffffffffffffffffffffffffffffffff16815260200190815260200160002060006101000a81548160ff02191690831515021790555050565b60015481565b60026020528060005260406000206000915054906101000a900460ff16815600a165627a7a72305820f0aeef5bdff66e6550f68a4bedf734c90d635e673a5be77607a47091272d8a8a0029",
  "source": "pragma solidity ^0.4.16;\r\n\r\ncontract Vote {\r\n    uint public candidate1;\r\n    uint public candidate2;\r\n\r\n    mapping (address => bool) public voted;\r\n\r\n    function castVote(uint candidate) public {\r\n        require(!voted[msg.sender] && (candidate == 1 || candidate == 2));\r\n\r\n        if (candidate == 1) {\r\n            candidate1++;\r\n        } else {\r\n            candidate2++;\r\n        }\r\n\r\n        voted[msg.sender] = true;\r\n    }\r\n}",
  "sourcePath": "E:\\work\\inne\\Blockchain\\nethereumChain\\eth\\contracts\\Vote.sol",
  "compiler": {
    "name": "solc",
    "version": "0.4.24+commit.e67f0147.Emscripten.clang"
  },
  "schemaVersion": "2.0.1",
  "updatedAt": "2018-06-24T12:11:19.766Z"
}